{
  "contractName": "Logger",
  "abi": [
    {
      "anonymous": false,
      "inputs": [
        {
          "indexed": true,
          "name": "requester",
          "type": "bytes32"
        },
        {
          "indexed": false,
          "name": "source",
          "type": "bytes"
        },
        {
          "indexed": true,
          "name": "target",
          "type": "bytes"
        },
        {
          "indexed": true,
          "name": "command",
          "type": "bytes"
        },
        {
          "indexed": false,
          "name": "requestedTime",
          "type": "uint256"
        }
      ],
      "name": "LogRequest",
      "type": "event"
    },
    {
      "anonymous": false,
      "inputs": [
        {
          "indexed": true,
          "name": "requester",
          "type": "bytes32"
        },
        {
          "indexed": false,
          "name": "source",
          "type": "bytes"
        },
        {
          "indexed": true,
          "name": "target",
          "type": "bytes"
        },
        {
          "indexed": true,
          "name": "command",
          "type": "bytes"
        },
        {
          "indexed": false,
          "name": "result",
          "type": "bytes"
        }
      ],
      "name": "LogResponse",
      "type": "event"
    },
    {
      "constant": false,
      "inputs": [
        {
          "name": "requester",
          "type": "bytes32"
        },
        {
          "name": "source",
          "type": "bytes"
        },
        {
          "name": "target",
          "type": "bytes"
        },
        {
          "name": "command",
          "type": "bytes"
        },
        {
          "name": "requestedTime",
          "type": "uint256"
        }
      ],
      "name": "request",
      "outputs": [],
      "payable": false,
      "stateMutability": "nonpayable",
      "type": "function"
    },
    {
      "constant": false,
      "inputs": [
        {
          "name": "requester",
          "type": "bytes32"
        },
        {
          "name": "source",
          "type": "bytes"
        },
        {
          "name": "target",
          "type": "bytes"
        },
        {
          "name": "command",
          "type": "bytes"
        },
        {
          "name": "result",
          "type": "bytes"
        }
      ],
      "name": "response",
      "outputs": [],
      "payable": false,
      "stateMutability": "nonpayable",
      "type": "function"
    }
  ],
  "bytecode": "0x608060405234801561001057600080fd5b50610867806100206000396000f3fe60806040526004361061004c576000357c0100000000000000000000000000000000000000000000000000000000900463ffffffff1680637ed69fe314610051578063f1c129121461025b575b600080fd5b34801561005d57600080fd5b50610259600480360360a081101561007457600080fd5b81019080803590602001909291908035906020019064010000000081111561009b57600080fd5b8201836020820111156100ad57600080fd5b803590602001918460018302840111640100000000831117156100cf57600080fd5b91908080601f016020809104026020016040519081016040528093929190818152602001838380828437600081840152601f19601f8201169050808301925050505050505091929192908035906020019064010000000081111561013257600080fd5b82018360208201111561014457600080fd5b8035906020019184600183028401116401000000008311171561016657600080fd5b91908080601f016020809104026020016040519081016040528093929190818152602001838380828437600081840152601f19601f820116905080830192505050505050509192919290803590602001906401000000008111156101c957600080fd5b8201836020820111156101db57600080fd5b803590602001918460018302840111640100000000831117156101fd57600080fd5b91908080601f016020809104026020016040519081016040528093929190818152602001838380828437600081840152601f19601f820116905080830192505050505050509192919290803590602001909291905050506104f2565b005b34801561026757600080fd5b506104f0600480360360a081101561027e57600080fd5b8101908080359060200190929190803590602001906401000000008111156102a557600080fd5b8201836020820111156102b757600080fd5b803590602001918460018302840111640100000000831117156102d957600080fd5b91908080601f016020809104026020016040519081016040528093929190818152602001838380828437600081840152601f19601f8201169050808301925050505050505091929192908035906020019064010000000081111561033c57600080fd5b82018360208201111561034e57600080fd5b8035906020019184600183028401116401000000008311171561037057600080fd5b91908080601f016020809104026020016040519081016040528093929190818152602001838380828437600081840152601f19601f820116905080830192505050505050509192919290803590602001906401000000008111156103d357600080fd5b8201836020820111156103e557600080fd5b8035906020019184600183028401116401000000008311171561040757600080fd5b91908080601f016020809104026020016040519081016040528093929190818152602001838380828437600081840152601f19601f8201169050808301925050505050505091929192908035906020019064010000000081111561046a57600080fd5b82018360208201111561047c57600080fd5b8035906020019184600183028401116401000000008311171561049e57600080fd5b91908080601f016020809104026020016040519081016040528093929190818152602001838380828437600081840152601f19601f820116905080830192505050505050509192919290505050610664565b005b816040518082805190602001908083835b6020831015156105285780518252602082019150602081019050602083039250610503565b6001836020036101000a0380198251168184511680821785525050505050509050019150506040518091039020836040518082805190602001908083835b60208310151561058b5780518252602082019150602081019050602083039250610566565b6001836020036101000a0380198251168184511680821785525050505050509050019150506040518091039020867f43089042aa236ee5375c142bf25e4504e822f6d6b3d224dc97e0f318ac7cd35e87856040518080602001838152602001828103825284818151815260200191508051906020019080838360005b83811015610622578082015181840152602081019050610607565b50505050905090810190601f16801561064f5780820380516001836020036101000a031916815260200191505b50935050505060405180910390a45050505050565b816040518082805190602001908083835b60208310151561069a5780518252602082019150602081019050602083039250610675565b6001836020036101000a0380198251168184511680821785525050505050509050019150506040518091039020836040518082805190602001908083835b6020831015156106fd57805182526020820191506020810190506020830392506106d8565b6001836020036101000a0380198251168184511680821785525050505050509050019150506040518091039020867fe1709ebfc49c40eccd4d38744746c4f188f3a0466d8610368833cbd4f68297028785604051808060200180602001838103835285818151815260200191508051906020019080838360005b83811015610792578082015181840152602081019050610777565b50505050905090810190601f1680156107bf5780820380516001836020036101000a031916815260200191505b50838103825284818151815260200191508051906020019080838360005b838110156107f85780820151818401526020810190506107dd565b50505050905090810190601f1680156108255780820380516001836020036101000a031916815260200191505b5094505050505060405180910390a4505050505056fea165627a7a72305820030928c5ddbc59e0b4b8e3a52f03cf0f40a0401de60d3291e2d48776f24bf77d0029",
  "source": "pragma solidity ^0.5.0;\n\ncontract Logger {\n    event LogRequest(bytes32 indexed requester, bytes source, bytes indexed target, bytes indexed command, uint256 requestedTime); // this works fine\n    event LogResponse(bytes32 indexed requester, bytes source, bytes indexed target, bytes indexed command, bytes result); // this produces the error\n\n    function request(bytes32 requester, bytes memory source, bytes memory target, bytes memory command, uint256 requestedTime) public {\n        emit LogRequest(requester, source, target, command, requestedTime);\n    }\n\n    function response(bytes32 requester, bytes memory source, bytes memory target, bytes memory command, bytes memory result) public {\n        emit LogResponse(requester, source, target, command, result);\n    }\n}",
  "sourcePath": "/home/anon/tmp/web3-3738/contracts/Logger.sol",
  "compiler": {
    "name": "solc",
    "version": "0.5.0+commit.1d4f565a.Emscripten.clang"
  },
  "schemaVersion": "3.2.3",
  "updatedAt": "2020-11-03T21:00:03.390Z",
  "networkType": "ethereum",
  "devdoc": {
    "methods": {}
  },
  "userdoc": {
    "methods": {}
  }
}